{
  "contractName": "BulkTank",
  "abi": [
    {
      "inputs": [],
      "payable": false,
      "stateMutability": "nonpayable",
      "type": "constructor"
    },
    {
      "anonymous": false,
      "inputs": [
        {
          "indexed": true,
          "internalType": "address",
          "name": "from",
          "type": "address"
        },
        {
          "indexed": false,
          "internalType": "string",
          "name": "message",
          "type": "string"
        }
      ],
      "name": "MyEvent",
      "type": "event"
    },
    {
      "constant": true,
      "inputs": [],
      "name": "count",
      "outputs": [
        {
          "internalType": "uint256",
          "name": "",
          "type": "uint256"
        }
      ],
      "payable": false,
      "stateMutability": "view",
      "type": "function"
    },
    {
      "constant": true,
      "inputs": [],
      "name": "weight",
      "outputs": [
        {
          "internalType": "uint256",
          "name": "",
          "type": "uint256"
        }
      ],
      "payable": false,
      "stateMutability": "view",
      "type": "function"
    },
    {
      "constant": false,
      "inputs": [
        {
          "internalType": "uint256",
          "name": "recordedTankWeight",
          "type": "uint256"
        }
      ],
      "name": "saveWeight",
      "outputs": [],
      "payable": false,
      "stateMutability": "nonpayable",
      "type": "function"
    }
  ],
  "bytecode": "0x608060405260008055600060015534801561001957600080fd5b503373ffffffffffffffffffffffffffffffffffffffff167fb32176d17075eed8b3928b6074acca3be6f7932af328157d97cdb73ba7b2b02560405180806020018281038252603281526020018061021f6032913960400191505060405180910390a26103e760018190555061018b806100946000396000f3fe608060405234801561001057600080fd5b50600436106100415760003560e01c806306661abd146100465780636413d6ad14610064578063a1aab33f14610092575b600080fd5b61004e6100b0565b6040518082815260200191505060405180910390f35b6100906004803603602081101561007a57600080fd5b81019080803590602001909291905050506100b6565b005b61009a610122565b6040518082815260200191505060405180910390f35b60005481565b3373ffffffffffffffffffffffffffffffffffffffff167fb32176d17075eed8b3928b6074acca3be6f7932af328157d97cdb73ba7b2b02560405180806020018281038252602e815260200180610129602e913960400191505060405180910390a28060018190555050565b6001548156fe4a757374207265636f726465642062756c6b2074616e6b2057656967687420696e20736176655765696768742829a265627a7a723158200a1b5f3293772d42f226bf75e214f2fd9e8c635cdff1d6e7df8bd0aae4c2d95664736f6c634300051000324a75737420637265617465642073696d706c652073746f7261676520636f6e7472616374203a20736f6d655f76616c3d3234",
  "source": "//pragma solidity ^0.8.10;\r\n//pragma solidity >=0.4.22 <=0.8.15;\r\npragma solidity >=0.4.22 <=0.8.15;\r\n\r\ncontract BulkTank {\r\n  uint public count = 0; // state variable\r\n  uint public weight =0; //state variable\r\n\r\n  event MyEvent(address indexed from, string message);\r\n\r\n\r\n  constructor() public {\r\n    //createBulkTank('BULK Tank TK', '123123123');      //there is no complex constructor()\r\n    emit MyEvent(msg.sender, 'Just created simple storage contract : some_val=24');\r\n    weight=999;       //flagged value for BulkTank\r\n  }\r\n\r\n\r\n\r\n  //Added ability to save Tank Weight\r\n  function saveWeight(uint recordedTankWeight) public {\r\n    emit MyEvent(msg.sender, 'Just recorded bulk tank Weight in saveWeight()');\r\n    weight=recordedTankWeight;\r\n  }\r\n}",
  "sourcePath": "C:\\Users\\barney\\blockchain-node\\blockchain-node-api\\contracts\\BulkTank.sol",
  "compiler": {
    "name": "solc",
    "version": "0.5.16+commit.9c3226ce.Emscripten.clang"
  },
  "schemaVersion": "3.4.8",
  "updatedAt": "2022-08-14T09:45:33.657Z",
  "networkType": "ethereum",
  "devdoc": {
    "methods": {}
  },
  "userdoc": {
    "methods": {}
  }
}