{
  "contractName": "Contacts",
  "abi": [
    {
      "inputs": [],
      "payable": false,
      "stateMutability": "nonpayable",
      "type": "constructor"
    },
    {
      "anonymous": false,
      "inputs": [
        {
          "indexed": true,
          "internalType": "address",
          "name": "from",
          "type": "address"
        },
        {
          "indexed": false,
          "internalType": "string",
          "name": "message",
          "type": "string"
        }
      ],
      "name": "MyEvent",
      "type": "event"
    },
    {
      "constant": true,
      "inputs": [
        {
          "internalType": "uint256",
          "name": "",
          "type": "uint256"
        }
      ],
      "name": "contacts",
      "outputs": [
        {
          "internalType": "uint256",
          "name": "id",
          "type": "uint256"
        },
        {
          "internalType": "string",
          "name": "name",
          "type": "string"
        },
        {
          "internalType": "string",
          "name": "phone",
          "type": "string"
        }
      ],
      "payable": false,
      "stateMutability": "view",
      "type": "function"
    },
    {
      "constant": true,
      "inputs": [],
      "name": "count",
      "outputs": [
        {
          "internalType": "uint256",
          "name": "",
          "type": "uint256"
        }
      ],
      "payable": false,
      "stateMutability": "view",
      "type": "function"
    },
    {
      "constant": false,
      "inputs": [
        {
          "internalType": "string",
          "name": "_name",
          "type": "string"
        },
        {
          "internalType": "string",
          "name": "_phone",
          "type": "string"
        }
      ],
      "name": "createContact",
      "outputs": [],
      "payable": false,
      "stateMutability": "nonpayable",
      "type": "function"
    },
    {
      "constant": false,
      "inputs": [],
      "name": "updateCount",
      "outputs": [],
      "payable": false,
      "stateMutability": "nonpayable",
      "type": "function"
    }
  ],
  "bytecode": "0x6080604052600160005534801561001557600080fd5b506100906040518060400160405280600c81526020017f5a616661722053616c65656d00000000000000000000000000000000000000008152506040518060400160405280600381526020017f31324100000000000000000000000000000000000000000000000000000000008152506100f760201b60201c565b3373ffffffffffffffffffffffffffffffffffffffff167fb32176d17075eed8b3928b6074acca3be6f7932af328157d97cdb73ba7b2b0256040518080602001828103825260288152602001806109656028913960400191505060405180910390a261028b565b3373ffffffffffffffffffffffffffffffffffffffff167fb32176d17075eed8b3928b6074acca3be6f7932af328157d97cdb73ba7b2b02560405180806020018281038252602b81526020018061098d602b913960400191505060405180910390a26000808154809291906001019190505550604051806060016040528060005481526020018381526020018281525060016000805481526020019081526020016000206000820151816000015560208201518160010190805190602001906101c19291906101e6565b5060408201518160020190805190602001906101de9291906101e6565b509050505050565b828054600181600116156101000203166002900490600052602060002090601f016020900481019282601f1061022757805160ff1916838001178555610255565b82800160010185558215610255579182015b82811115610254578251825591602001919060010190610239565b5b5090506102629190610266565b5090565b61028891905b8082111561028457600081600090555060010161026c565b5090565b90565b6106cb8061029a6000396000f3fe608060405234801561001057600080fd5b506004361061004c5760003560e01c806306661abd146100515780633dce49201461006f57806369b4ecc9146101c1578063e0f478cb146101cb575b600080fd5b6100596102e5565b6040518082815260200191505060405180910390f35b6101bf6004803603604081101561008557600080fd5b81019080803590602001906401000000008111156100a257600080fd5b8201836020820111156100b457600080fd5b803590602001918460018302840111640100000000831117156100d657600080fd5b91908080601f016020809104026020016040519081016040528093929190818152602001838380828437600081840152601f19601f8201169050808301925050505050505091929192908035906020019064010000000081111561013957600080fd5b82018360208201111561014b57600080fd5b8035906020019184600183028401116401000000008311171561016d57600080fd5b91908080601f016020809104026020016040519081016040528093929190818152602001838380828437600081840152601f19601f8201169050808301925050505050505091929192905050506102eb565b005b6101c96103da565b005b6101f7600480360360208110156101e157600080fd5b810190808035906020019092919050505061046c565b604051808481526020018060200180602001838103835285818151815260200191508051906020019080838360005b83811015610241578082015181840152602081019050610226565b50505050905090810190601f16801561026e5780820380516001836020036101000a031916815260200191505b50838103825284818151815260200191508051906020019080838360005b838110156102a757808201518184015260208101905061028c565b50505050905090810190601f1680156102d45780820380516001836020036101000a031916815260200191505b509550505050505060405180910390f35b60005481565b3373ffffffffffffffffffffffffffffffffffffffff167fb32176d17075eed8b3928b6074acca3be6f7932af328157d97cdb73ba7b2b02560405180806020018281038252602b81526020018061066c602b913960400191505060405180910390a26000808154809291906001019190505550604051806060016040528060005481526020018381526020018281525060016000805481526020019081526020016000206000820151816000015560208201518160010190805190602001906103b59291906105c6565b5060408201518160020190805190602001906103d29291906105c6565b509050505050565b60008081548092919060010191905055503373ffffffffffffffffffffffffffffffffffffffff167fb32176d17075eed8b3928b6074acca3be6f7932af328157d97cdb73ba7b2b0256040518080602001828103825260148152602001807f496e6372656173656420636f756e74206279203100000000000000000000000081525060200191505060405180910390a2565b6001602052806000526040600020600091509050806000015490806001018054600181600116156101000203166002900480601f01602080910402602001604051908101604052809291908181526020018280546001816001161561010002031660029004801561051e5780601f106104f35761010080835404028352916020019161051e565b820191906000526020600020905b81548152906001019060200180831161050157829003601f168201915b505050505090806002018054600181600116156101000203166002900480601f0160208091040260200160405190810160405280929190818152602001828054600181600116156101000203166002900480156105bc5780601f10610591576101008083540402835291602001916105bc565b820191906000526020600020905b81548152906001019060200180831161059f57829003601f168201915b5050505050905083565b828054600181600116156101000203166002900490600052602060002090601f016020900481019282601f1061060757805160ff1916838001178555610635565b82800160010185558215610635579182015b82811115610634578251825591602001919060010190610619565b5b5090506106429190610646565b5090565b61066891905b8082111561066457600081600090555060010161064c565b5090565b9056fe4a7573742063726561746564206120636f6e747261637420696e20637265617465436f6e74726163742829a265627a7a723158205b4bbd4cf769baed12321bf96d64e3c085fc5f0e67c3b2eb92dbed83d932168564736f6c634300051000324a7573742063726561746564206120636f6e747261637420696e20436f6e7374727563746f7228294a7573742063726561746564206120636f6e747261637420696e20637265617465436f6e74726163742829",
  "source": "//pragma solidity ^0.8.10;\r\n//pragma solidity >=0.4.22 <=0.8.15;\r\npragma solidity >=0.4.22 <=0.8.0;\r\n\r\n//import \"truffle/Console.sol\";\r\n\r\n\r\ncontract Contacts {\r\n  uint public count = 1; // state variable\r\n  //event Log(string message, uint val);\r\n  event MyEvent(address indexed from, string message);\r\n\r\n\r\n\r\n  struct Contact {\r\n    uint id;\r\n    string name;\r\n    string phone;\r\n  }\r\n\r\n  constructor() public {\r\n    //console.log('In constructor');\r\n    createContact('Zafar Saleem', '12A');\r\n    //emit Log('In constructor', 23);\r\n    emit MyEvent(msg.sender, 'Just created a contract in Constructor()');\r\n  }\r\n\r\n\r\n  mapping(uint => Contact) public contacts;\r\n\r\n  function createContact(string memory _name, string memory _phone) public {\r\n   emit MyEvent(msg.sender, 'Just created a contract in createContract()');\r\n    count++;\r\n    contacts[count] = Contact(count, _name, _phone);\r\n  }\r\n\r\n //function getCount() public view returns (uint256){\r\n // return count;\r\n// }\r\n\r\n  function updateCount() public {\r\n    count++;\r\n    emit MyEvent(msg.sender, 'Increased count by 1');\r\n  }\r\n}",
  "sourcePath": "C:\\Users\\barney\\blockchain-node\\blockchain-node-api\\contracts\\Contacts.sol",
  "compiler": {
    "name": "solc",
    "version": "0.5.16+commit.9c3226ce.Emscripten.clang"
  },
  "schemaVersion": "3.4.8",
  "updatedAt": "2022-07-17T15:43:33.246Z",
  "networkType": "ethereum",
  "devdoc": {
    "methods": {}
  },
  "userdoc": {
    "methods": {}
  }
}