{
  "contractName": "Contacts",
  "abi": [
    {
      "inputs": [],
      "payable": false,
      "stateMutability": "nonpayable",
      "type": "constructor"
    },
    {
      "anonymous": false,
      "inputs": [
        {
          "indexed": true,
          "internalType": "address",
          "name": "from",
          "type": "address"
        },
        {
          "indexed": false,
          "internalType": "string",
          "name": "message",
          "type": "string"
        }
      ],
      "name": "MyEvent",
      "type": "event"
    },
    {
      "constant": true,
      "inputs": [
        {
          "internalType": "uint256",
          "name": "",
          "type": "uint256"
        }
      ],
      "name": "contacts",
      "outputs": [
        {
          "internalType": "uint256",
          "name": "id",
          "type": "uint256"
        },
        {
          "internalType": "string",
          "name": "name",
          "type": "string"
        },
        {
          "internalType": "string",
          "name": "phone",
          "type": "string"
        }
      ],
      "payable": false,
      "stateMutability": "view",
      "type": "function"
    },
    {
      "constant": true,
      "inputs": [],
      "name": "count",
      "outputs": [
        {
          "internalType": "uint256",
          "name": "",
          "type": "uint256"
        }
      ],
      "payable": false,
      "stateMutability": "view",
      "type": "function"
    },
    {
      "constant": true,
      "inputs": [],
      "name": "getCount",
      "outputs": [
        {
          "internalType": "uint256",
          "name": "",
          "type": "uint256"
        }
      ],
      "payable": false,
      "stateMutability": "view",
      "type": "function"
    },
    {
      "constant": false,
      "inputs": [
        {
          "internalType": "string",
          "name": "_name",
          "type": "string"
        },
        {
          "internalType": "string",
          "name": "_phone",
          "type": "string"
        }
      ],
      "name": "createContact",
      "outputs": [],
      "payable": false,
      "stateMutability": "nonpayable",
      "type": "function"
    }
  ],
  "bytecode": "0x60806040526000805534801561001457600080fd5b5061008f6040518060400160405280600c81526020017f5a616661722053616c65656d00000000000000000000000000000000000000008152506040518060400160405280600981526020017f313233313233313233000000000000000000000000000000000000000000000081525061009460201b60201c565b610228565b3373ffffffffffffffffffffffffffffffffffffffff167fb32176d17075eed8b3928b6074acca3be6f7932af328157d97cdb73ba7b2b02560405180806020018281038252602b81526020018061088d602b913960400191505060405180910390a260008081548092919060010191905055506040518060600160405280600054815260200183815260200182815250600160008054815260200190815260200160002060008201518160000155602082015181600101908051906020019061015e929190610183565b50604082015181600201908051906020019061017b929190610183565b509050505050565b828054600181600116156101000203166002900490600052602060002090601f016020900481019282601f106101c457805160ff19168380011785556101f2565b828001600101855582156101f2579182015b828111156101f15782518255916020019190600101906101d6565b5b5090506101ff9190610203565b5090565b61022591905b80821115610221576000816000905550600101610209565b5090565b90565b610656806102376000396000f3fe608060405234801561001057600080fd5b506004361061004c5760003560e01c806306661abd146100515780633dce49201461006f578063a87d942c146101c1578063e0f478cb146101df575b600080fd5b6100596102f9565b6040518082815260200191505060405180910390f35b6101bf6004803603604081101561008557600080fd5b81019080803590602001906401000000008111156100a257600080fd5b8201836020820111156100b457600080fd5b803590602001918460018302840111640100000000831117156100d657600080fd5b91908080601f016020809104026020016040519081016040528093929190818152602001838380828437600081840152601f19601f8201169050808301925050505050505091929192908035906020019064010000000081111561013957600080fd5b82018360208201111561014b57600080fd5b8035906020019184600183028401116401000000008311171561016d57600080fd5b91908080601f016020809104026020016040519081016040528093929190818152602001838380828437600081840152601f19601f8201169050808301925050505050505091929192905050506102ff565b005b6101c96103ee565b6040518082815260200191505060405180910390f35b61020b600480360360208110156101f557600080fd5b81019080803590602001909291905050506103f7565b604051808481526020018060200180602001838103835285818151815260200191508051906020019080838360005b8381101561025557808201518184015260208101905061023a565b50505050905090810190601f1680156102825780820380516001836020036101000a031916815260200191505b50838103825284818151815260200191508051906020019080838360005b838110156102bb5780820151818401526020810190506102a0565b50505050905090810190601f1680156102e85780820380516001836020036101000a031916815260200191505b509550505050505060405180910390f35b60005481565b3373ffffffffffffffffffffffffffffffffffffffff167fb32176d17075eed8b3928b6074acca3be6f7932af328157d97cdb73ba7b2b02560405180806020018281038252602b8152602001806105f7602b913960400191505060405180910390a26000808154809291906001019190505550604051806060016040528060005481526020018381526020018281525060016000805481526020019081526020016000206000820151816000015560208201518160010190805190602001906103c9929190610551565b5060408201518160020190805190602001906103e6929190610551565b509050505050565b60008054905090565b6001602052806000526040600020600091509050806000015490806001018054600181600116156101000203166002900480601f0160208091040260200160405190810160405280929190818152602001828054600181600116156101000203166002900480156104a95780601f1061047e576101008083540402835291602001916104a9565b820191906000526020600020905b81548152906001019060200180831161048c57829003601f168201915b505050505090806002018054600181600116156101000203166002900480601f0160208091040260200160405190810160405280929190818152602001828054600181600116156101000203166002900480156105475780601f1061051c57610100808354040283529160200191610547565b820191906000526020600020905b81548152906001019060200180831161052a57829003601f168201915b5050505050905083565b828054600181600116156101000203166002900490600052602060002090601f016020900481019282601f1061059257805160ff19168380011785556105c0565b828001600101855582156105c0579182015b828111156105bf5782518255916020019190600101906105a4565b5b5090506105cd91906105d1565b5090565b6105f391905b808211156105ef5760008160009055506001016105d7565b5090565b9056fe4a7573742063726561746564206120636f6e747261637420696e20637265617465436f6e74726163742829a265627a7a723158201d38e4f1772b00911405d0449e4b90205c1b9ecdad0fc1e73af2798ecb7b3ba664736f6c634300051000324a7573742063726561746564206120636f6e747261637420696e20637265617465436f6e74726163742829",
  "source": "//pragma solidity ^0.8.10;\r\n//pragma solidity >=0.4.22 <=0.8.15;\r\npragma solidity >=0.4.22 <=0.8.0;\r\n\r\ncontract Contacts {\r\n  uint public count = 0; // state variable\r\n\r\n  event MyEvent(address indexed from, string message);\r\n\r\n\r\n  struct Contact {\r\n    uint id;\r\n    string name;\r\n    string phone;\r\n  }\r\n\r\n  constructor() public {\r\n    createContact('Zafar Saleem', '123123123');\r\n  }\r\n\r\n  mapping(uint => Contact) public contacts;\r\n\r\n   function getCount() public view returns (uint256){\r\n  return count;\r\n }\r\n \r\n\r\n  function createContact(string memory _name, string memory _phone) public {\r\n    emit MyEvent(msg.sender, 'Just created a contract in createContract()');\r\n    count++;\r\n    contacts[count] = Contact(count, _name, _phone);\r\n  }\r\n}",
  "sourcePath": "C:\\Users\\barney\\blockchain-node\\blockchain-node-api\\contracts\\Contacts.sol",
  "compiler": {
    "name": "solc",
    "version": "0.5.16+commit.9c3226ce.Emscripten.clang"
  },
  "schemaVersion": "3.4.8",
  "updatedAt": "2022-07-17T16:34:37.756Z",
  "networkType": "ethereum",
  "devdoc": {
    "methods": {}
  },
  "userdoc": {
    "methods": {}
  }
}