{
  "contractName": "Contacts",
  "abi": [
    {
      "inputs": [],
      "payable": false,
      "stateMutability": "nonpayable",
      "type": "constructor"
    },
    {
      "anonymous": false,
      "inputs": [
        {
          "indexed": true,
          "internalType": "address",
          "name": "from",
          "type": "address"
        },
        {
          "indexed": false,
          "internalType": "string",
          "name": "message",
          "type": "string"
        }
      ],
      "name": "MyEvent",
      "type": "event"
    },
    {
      "constant": true,
      "inputs": [
        {
          "internalType": "uint256",
          "name": "",
          "type": "uint256"
        }
      ],
      "name": "contacts",
      "outputs": [
        {
          "internalType": "uint256",
          "name": "id",
          "type": "uint256"
        },
        {
          "internalType": "string",
          "name": "name",
          "type": "string"
        },
        {
          "internalType": "string",
          "name": "phone",
          "type": "string"
        }
      ],
      "payable": false,
      "stateMutability": "view",
      "type": "function"
    },
    {
      "constant": true,
      "inputs": [],
      "name": "count",
      "outputs": [
        {
          "internalType": "uint256",
          "name": "",
          "type": "uint256"
        }
      ],
      "payable": false,
      "stateMutability": "view",
      "type": "function"
    },
    {
      "constant": false,
      "inputs": [
        {
          "internalType": "string",
          "name": "_name",
          "type": "string"
        },
        {
          "internalType": "string",
          "name": "_phone",
          "type": "string"
        }
      ],
      "name": "createContact",
      "outputs": [],
      "payable": false,
      "stateMutability": "nonpayable",
      "type": "function"
    },
    {
      "constant": true,
      "inputs": [],
      "name": "getCount",
      "outputs": [
        {
          "internalType": "uint256",
          "name": "",
          "type": "uint256"
        }
      ],
      "payable": false,
      "stateMutability": "view",
      "type": "function"
    },
    {
      "constant": false,
      "inputs": [],
      "name": "updateCount",
      "outputs": [],
      "payable": false,
      "stateMutability": "nonpayable",
      "type": "function"
    }
  ],
  "bytecode": "0x6080604052600160005534801561001557600080fd5b506100906040518060400160405280600c81526020017f5a616661722053616c65656d00000000000000000000000000000000000000008152506040518060400160405280600381526020017f31324100000000000000000000000000000000000000000000000000000000008152506100f760201b60201c565b3373ffffffffffffffffffffffffffffffffffffffff167fb32176d17075eed8b3928b6074acca3be6f7932af328157d97cdb73ba7b2b0256040518080602001828103825260288152602001806109976028913960400191505060405180910390a261028b565b3373ffffffffffffffffffffffffffffffffffffffff167fb32176d17075eed8b3928b6074acca3be6f7932af328157d97cdb73ba7b2b02560405180806020018281038252602b8152602001806109bf602b913960400191505060405180910390a26000808154809291906001019190505550604051806060016040528060005481526020018381526020018281525060016000805481526020019081526020016000206000820151816000015560208201518160010190805190602001906101c19291906101e6565b5060408201518160020190805190602001906101de9291906101e6565b509050505050565b828054600181600116156101000203166002900490600052602060002090601f016020900481019282601f1061022757805160ff1916838001178555610255565b82800160010185558215610255579182015b82811115610254578251825591602001919060010190610239565b5b5090506102629190610266565b5090565b61028891905b8082111561028457600081600090555060010161026c565b5090565b90565b6106fd8061029a6000396000f3fe608060405234801561001057600080fd5b50600436106100575760003560e01c806306661abd1461005c5780633dce49201461007a57806369b4ecc9146101cc578063a87d942c146101d6578063e0f478cb146101f4575b600080fd5b61006461030e565b6040518082815260200191505060405180910390f35b6101ca6004803603604081101561009057600080fd5b81019080803590602001906401000000008111156100ad57600080fd5b8201836020820111156100bf57600080fd5b803590602001918460018302840111640100000000831117156100e157600080fd5b91908080601f016020809104026020016040519081016040528093929190818152602001838380828437600081840152601f19601f8201169050808301925050505050505091929192908035906020019064010000000081111561014457600080fd5b82018360208201111561015657600080fd5b8035906020019184600183028401116401000000008311171561017857600080fd5b91908080601f016020809104026020016040519081016040528093929190818152602001838380828437600081840152601f19601f820116905080830192505050505050509192919290505050610314565b005b6101d4610403565b005b6101de610495565b6040518082815260200191505060405180910390f35b6102206004803603602081101561020a57600080fd5b810190808035906020019092919050505061049e565b604051808481526020018060200180602001838103835285818151815260200191508051906020019080838360005b8381101561026a57808201518184015260208101905061024f565b50505050905090810190601f1680156102975780820380516001836020036101000a031916815260200191505b50838103825284818151815260200191508051906020019080838360005b838110156102d05780820151818401526020810190506102b5565b50505050905090810190601f1680156102fd5780820380516001836020036101000a031916815260200191505b509550505050505060405180910390f35b60005481565b3373ffffffffffffffffffffffffffffffffffffffff167fb32176d17075eed8b3928b6074acca3be6f7932af328157d97cdb73ba7b2b02560405180806020018281038252602b81526020018061069e602b913960400191505060405180910390a26000808154809291906001019190505550604051806060016040528060005481526020018381526020018281525060016000805481526020019081526020016000206000820151816000015560208201518160010190805190602001906103de9291906105f8565b5060408201518160020190805190602001906103fb9291906105f8565b509050505050565b60008081548092919060010191905055503373ffffffffffffffffffffffffffffffffffffffff167fb32176d17075eed8b3928b6074acca3be6f7932af328157d97cdb73ba7b2b0256040518080602001828103825260148152602001807f496e6372656173656420636f756e74206279203100000000000000000000000081525060200191505060405180910390a2565b60008054905090565b6001602052806000526040600020600091509050806000015490806001018054600181600116156101000203166002900480601f0160208091040260200160405190810160405280929190818152602001828054600181600116156101000203166002900480156105505780601f1061052557610100808354040283529160200191610550565b820191906000526020600020905b81548152906001019060200180831161053357829003601f168201915b505050505090806002018054600181600116156101000203166002900480601f0160208091040260200160405190810160405280929190818152602001828054600181600116156101000203166002900480156105ee5780601f106105c3576101008083540402835291602001916105ee565b820191906000526020600020905b8154815290600101906020018083116105d157829003601f168201915b5050505050905083565b828054600181600116156101000203166002900490600052602060002090601f016020900481019282601f1061063957805160ff1916838001178555610667565b82800160010185558215610667579182015b8281111561066657825182559160200191906001019061064b565b5b5090506106749190610678565b5090565b61069a91905b8082111561069657600081600090555060010161067e565b5090565b9056fe4a7573742063726561746564206120636f6e747261637420696e20637265617465436f6e74726163742829a265627a7a72315820b79416fdda92513f3a1e0024701ce51d113e0304b8dfb41ddeab4d5fe3a7e31064736f6c634300051000324a7573742063726561746564206120636f6e747261637420696e20436f6e7374727563746f7228294a7573742063726561746564206120636f6e747261637420696e20637265617465436f6e74726163742829",
  "source": "//pragma solidity ^0.8.10;\r\npragma solidity >=0.4.22 <=0.8.15;\r\n\r\n//import \"truffle/Console.sol\";\r\n\r\n\r\ncontract Contacts {\r\n  uint public count = 1; // state variable\r\n  //event Log(string message, uint val);\r\n  event MyEvent(address indexed from, string message);\r\n\r\n\r\n\r\n  struct Contact {\r\n    uint id;\r\n    string name;\r\n    string phone;\r\n  }\r\n\r\n  constructor() public {\r\n    //console.log('In constructor');\r\n    createContact('Zafar Saleem', '12A');\r\n    //emit Log('In constructor', 23);\r\n    emit MyEvent(msg.sender, 'Just created a contract in Constructor()');\r\n  }\r\n\r\n\r\n  mapping(uint => Contact) public contacts;\r\n\r\n  function createContact(string memory _name, string memory _phone) public {\r\n   emit MyEvent(msg.sender, 'Just created a contract in createContract()');\r\n    count++;\r\n    contacts[count] = Contact(count, _name, _phone);\r\n  }\r\n\r\n function getCount() public view returns (uint256){\r\n  return count;\r\n }\r\n\r\n  function updateCount() public {\r\n    count++;\r\n    emit MyEvent(msg.sender, 'Increased count by 1');\r\n  }\r\n}",
  "sourcePath": "C:\\Users\\barney\\blockchain-node\\blockchain-node-api\\contracts\\Contacts.sol",
  "compiler": {
    "name": "solc",
    "version": "0.5.16+commit.9c3226ce.Emscripten.clang"
  },
  "schemaVersion": "3.4.8",
  "updatedAt": "2022-07-17T15:04:40.147Z",
  "networkType": "ethereum",
  "devdoc": {
    "methods": {}
  },
  "userdoc": {
    "methods": {}
  }
}