{
  "contractName": "Contacts",
  "abi": [
    {
      "inputs": [],
      "payable": false,
      "stateMutability": "nonpayable",
      "type": "constructor"
    },
    {
      "anonymous": false,
      "inputs": [
        {
          "indexed": true,
          "internalType": "address",
          "name": "from",
          "type": "address"
        },
        {
          "indexed": false,
          "internalType": "string",
          "name": "message",
          "type": "string"
        }
      ],
      "name": "MyEvent",
      "type": "event"
    },
    {
      "constant": true,
      "inputs": [
        {
          "internalType": "uint256",
          "name": "",
          "type": "uint256"
        }
      ],
      "name": "contacts",
      "outputs": [
        {
          "internalType": "uint256",
          "name": "id",
          "type": "uint256"
        },
        {
          "internalType": "string",
          "name": "name",
          "type": "string"
        },
        {
          "internalType": "string",
          "name": "phone",
          "type": "string"
        }
      ],
      "payable": false,
      "stateMutability": "view",
      "type": "function"
    },
    {
      "constant": true,
      "inputs": [],
      "name": "count",
      "outputs": [
        {
          "internalType": "uint256",
          "name": "",
          "type": "uint256"
        }
      ],
      "payable": false,
      "stateMutability": "view",
      "type": "function"
    },
    {
      "constant": true,
      "inputs": [],
      "name": "weight",
      "outputs": [
        {
          "internalType": "uint256",
          "name": "",
          "type": "uint256"
        }
      ],
      "payable": false,
      "stateMutability": "view",
      "type": "function"
    },
    {
      "constant": true,
      "inputs": [],
      "name": "getCount",
      "outputs": [
        {
          "internalType": "uint256",
          "name": "",
          "type": "uint256"
        }
      ],
      "payable": false,
      "stateMutability": "view",
      "type": "function"
    },
    {
      "constant": false,
      "inputs": [
        {
          "internalType": "string",
          "name": "_name",
          "type": "string"
        },
        {
          "internalType": "string",
          "name": "_phone",
          "type": "string"
        }
      ],
      "name": "createContact",
      "outputs": [],
      "payable": false,
      "stateMutability": "nonpayable",
      "type": "function"
    },
    {
      "constant": false,
      "inputs": [
        {
          "internalType": "uint256",
          "name": "recordedTankWeight",
          "type": "uint256"
        }
      ],
      "name": "saveWeight",
      "outputs": [],
      "payable": false,
      "stateMutability": "nonpayable",
      "type": "function"
    }
  ],
  "bytecode": "0x608060405260008055600060015534801561001957600080fd5b506100946040518060400160405280600c81526020017f5a616661722053616c65656d00000000000000000000000000000000000000008152506040518060400160405280600981526020017f313233313233313233000000000000000000000000000000000000000000000081525061009960201b60201c565b61022d565b3373ffffffffffffffffffffffffffffffffffffffff167fb32176d17075eed8b3928b6074acca3be6f7932af328157d97cdb73ba7b2b02560405180806020018281038252602b81526020018061098f602b913960400191505060405180910390a2600080815480929190600101919050555060405180606001604052806000548152602001838152602001828152506002600080548152602001908152602001600020600082015181600001556020820151816001019080519060200190610163929190610188565b506040820151816002019080519060200190610180929190610188565b509050505050565b828054600181600116156101000203166002900490600052602060002090601f016020900481019282601f106101c957805160ff19168380011785556101f7565b828001600101855582156101f7579182015b828111156101f65782518255916020019190600101906101db565b5b5090506102049190610208565b5090565b61022a91905b8082111561022657600081600090555060010161020e565b5090565b90565b6107538061023c6000396000f3fe608060405234801561001057600080fd5b50600436106100625760003560e01c806306661abd146100675780633dce4920146100855780636413d6ad146101d7578063a1aab33f14610205578063a87d942c14610223578063e0f478cb14610241575b600080fd5b61006f61035b565b6040518082815260200191505060405180910390f35b6101d56004803603604081101561009b57600080fd5b81019080803590602001906401000000008111156100b857600080fd5b8201836020820111156100ca57600080fd5b803590602001918460018302840111640100000000831117156100ec57600080fd5b91908080601f016020809104026020016040519081016040528093929190818152602001838380828437600081840152601f19601f8201169050808301925050505050505091929192908035906020019064010000000081111561014f57600080fd5b82018360208201111561016157600080fd5b8035906020019184600183028401116401000000008311171561018357600080fd5b91908080601f016020809104026020016040519081016040528093929190818152602001838380828437600081840152601f19601f820116905080830192505050505050509192919290505050610361565b005b610203600480360360208110156101ed57600080fd5b8101908080359060200190929190505050610450565b005b61020d6104bc565b6040518082815260200191505060405180910390f35b61022b6104c2565b6040518082815260200191505060405180910390f35b61026d6004803603602081101561025757600080fd5b81019080803590602001909291905050506104cb565b604051808481526020018060200180602001838103835285818151815260200191508051906020019080838360005b838110156102b757808201518184015260208101905061029c565b50505050905090810190601f1680156102e45780820380516001836020036101000a031916815260200191505b50838103825284818151815260200191508051906020019080838360005b8381101561031d578082015181840152602081019050610302565b50505050905090810190601f16801561034a5780820380516001836020036101000a031916815260200191505b509550505050505060405180910390f35b60005481565b3373ffffffffffffffffffffffffffffffffffffffff167fb32176d17075eed8b3928b6074acca3be6f7932af328157d97cdb73ba7b2b02560405180806020018281038252602b8152602001806106f4602b913960400191505060405180910390a260008081548092919060010191905055506040518060600160405280600054815260200183815260200182815250600260008054815260200190815260200160002060008201518160000155602082015181600101908051906020019061042b929190610625565b506040820151816002019080519060200190610448929190610625565b509050505050565b3373ffffffffffffffffffffffffffffffffffffffff167fb32176d17075eed8b3928b6074acca3be6f7932af328157d97cdb73ba7b2b0256040518080602001828103825260298152602001806106cb6029913960400191505060405180910390a28060018190555050565b60015481565b60008054905090565b6002602052806000526040600020600091509050806000015490806001018054600181600116156101000203166002900480601f01602080910402602001604051908101604052809291908181526020018280546001816001161561010002031660029004801561057d5780601f106105525761010080835404028352916020019161057d565b820191906000526020600020905b81548152906001019060200180831161056057829003601f168201915b505050505090806002018054600181600116156101000203166002900480601f01602080910402602001604051908101604052809291908181526020018280546001816001161561010002031660029004801561061b5780601f106105f05761010080835404028352916020019161061b565b820191906000526020600020905b8154815290600101906020018083116105fe57829003601f168201915b5050505050905083565b828054600181600116156101000203166002900490600052602060002090601f016020900481019282601f1061066657805160ff1916838001178555610694565b82800160010185558215610694579182015b82811115610693578251825591602001919060010190610678565b5b5090506106a191906106a5565b5090565b6106c791905b808211156106c35760008160009055506001016106ab565b5090565b9056fe4a757374207265636f726465642074616e6b2057656967687420696e207361766557656967687428294a7573742063726561746564206120636f6e747261637420696e20637265617465436f6e74726163742829a265627a7a723158207be7c2768d7c77033c5c77f849065f30a922781e047f9689771d7a41aee8283c64736f6c634300051000324a7573742063726561746564206120636f6e747261637420696e20637265617465436f6e74726163742829",
  "source": "//pragma solidity ^0.8.10;\r\n//pragma solidity >=0.4.22 <=0.8.15;\r\npragma solidity >=0.4.22 <=0.8.15;\r\n\r\ncontract Contacts {\r\n  uint public count = 0; // state variable\r\n  uint public weight =0; //state variable\r\n\r\n  event MyEvent(address indexed from, string message);\r\n\r\n\r\n  struct Contact {\r\n    uint id;\r\n    string name;\r\n    string phone;\r\n  }\r\n\r\n  constructor() public {\r\n    createContact('Zafar Saleem', '123123123');\r\n  }\r\n\r\n  mapping(uint => Contact) public contacts;\r\n\r\n   function getCount() public view returns (uint256){\r\n  return count;\r\n }\r\n\r\n  function createContact(string memory _name, string memory _phone) public {\r\n    emit MyEvent(msg.sender, 'Just created a contract in createContract()');\r\n    count++;\r\n    contacts[count] = Contact(count, _name, _phone);\r\n  }\r\n\r\n  //Added ability to save Tank Weight\r\n  function saveWeight(uint recordedTankWeight) public {\r\n    emit MyEvent(msg.sender, 'Just recorded tank Weight in saveWeight()');\r\n    weight=recordedTankWeight;\r\n  }\r\n}",
  "sourcePath": "C:\\Users\\barney\\blockchain-node\\blockchain-node-api\\contracts\\Contacts.sol",
  "compiler": {
    "name": "solc",
    "version": "0.5.16+commit.9c3226ce.Emscripten.clang"
  },
  "schemaVersion": "3.4.8",
  "updatedAt": "2022-08-13T20:05:39.367Z",
  "networkType": "ethereum",
  "devdoc": {
    "methods": {}
  },
  "userdoc": {
    "methods": {}
  }
}