{
  "contractName": "SimpleStorage",
  "abi": [
    {
      "inputs": [],
      "payable": false,
      "stateMutability": "nonpayable",
      "type": "constructor"
    },
    {
      "anonymous": false,
      "inputs": [
        {
          "indexed": true,
          "internalType": "address",
          "name": "from",
          "type": "address"
        },
        {
          "indexed": false,
          "internalType": "string",
          "name": "message",
          "type": "string"
        }
      ],
      "name": "MyEvent",
      "type": "event"
    },
    {
      "constant": true,
      "inputs": [],
      "name": "some_val",
      "outputs": [
        {
          "internalType": "uint256",
          "name": "",
          "type": "uint256"
        }
      ],
      "payable": false,
      "stateMutability": "view",
      "type": "function"
    },
    {
      "constant": true,
      "inputs": [],
      "name": "write_count",
      "outputs": [
        {
          "internalType": "uint256",
          "name": "",
          "type": "uint256"
        }
      ],
      "payable": false,
      "stateMutability": "view",
      "type": "function"
    },
    {
      "constant": true,
      "inputs": [],
      "name": "read",
      "outputs": [
        {
          "internalType": "uint256",
          "name": "",
          "type": "uint256"
        }
      ],
      "payable": false,
      "stateMutability": "view",
      "type": "function"
    },
    {
      "constant": false,
      "inputs": [
        {
          "internalType": "uint256",
          "name": "newValue",
          "type": "uint256"
        }
      ],
      "name": "write",
      "outputs": [],
      "payable": false,
      "stateMutability": "nonpayable",
      "type": "function"
    },
    {
      "constant": false,
      "inputs": [],
      "name": "updateCount",
      "outputs": [],
      "payable": false,
      "stateMutability": "nonpayable",
      "type": "function"
    }
  ],
  "bytecode": "0x6080604052600060015534801561001557600080fd5b503373ffffffffffffffffffffffffffffffffffffffff167fb32176d17075eed8b3928b6074acca3be6f7932af328157d97cdb73ba7b2b0256040518080602001828103825260328152602001806103096032913960400191505060405180910390a2601860028190555061027a8061008f6000396000f3fe608060405234801561001057600080fd5b50600436106100575760003560e01c80632f048afa1461005c57806357de26a41461008a57806369b4ecc9146100a8578063726d9947146100b2578063dddc9411146100d0575b600080fd5b6100886004803603602081101561007257600080fd5b81019080803590602001909291905050506100ee565b005b610092610177565b6040518082815260200191505060405180910390f35b6100b0610180565b005b6100ba610213565b6040518082815260200191505060405180910390f35b6100d8610219565b6040518082815260200191505060405180910390f35b6001600081548092919060010191905055508060008190555080600254016002819055503373ffffffffffffffffffffffffffffffffffffffff167fb32176d17075eed8b3928b6074acca3be6f7932af328157d97cdb73ba7b2b0256040518080602001828103825260268152602001806102206026913960400191505060405180910390a250565b60008054905090565b6002600081548092919060010191905055503373ffffffffffffffffffffffffffffffffffffffff167fb32176d17075eed8b3928b6074acca3be6f7932af328157d97cdb73ba7b2b0256040518080602001828103825260178152602001807f496e6372656173656420736f6d655f76616c206279203100000000000000000081525060200191505060405180910390a2565b60025481565b6001548156fe68656c6c6f20666f6f207772697465202d20616e64207570646174656420736f6d655f76616ca265627a7a7231582059f0ff91e597690085662b02b90ac16ab66af904f1d74bfd4d45af3db84c330464736f6c634300051000324a75737420637265617465642073696d706c652073746f7261676520636f6e7472616374203a20736f6d655f76616c3d3234",
  "source": "// SPDX-License-Identifier: MIT\r\npragma solidity >=0.4.22 <0.9.0;\r\n\r\ncontract SimpleStorage {\r\n  uint256 value;\r\n  uint public write_count=0;  //state variable\r\n  uint public some_val;\r\n\r\n  event MyEvent(address indexed from, string message);\r\n\r\n  function read() public view returns (uint256) {\r\n    //emit MyEvent(msg.sender, 'hello foo read');\r\n    return value;\r\n  }\r\n\r\nconstructor() public {\r\n    emit MyEvent(msg.sender, 'Just created simple storage contract : some_val=24');\r\n    some_val=24;\r\n  }\r\n\r\n  function write(uint256 newValue) public {\r\n    write_count++;\r\n    value = newValue;\r\n    some_val=some_val+newValue;\r\n    emit MyEvent(msg.sender, 'hello foo write - and updated some_val');\r\n  }\r\n\r\n\r\n  function updateCount() public {\r\n    some_val++;\r\n    emit MyEvent(msg.sender, 'Increased some_val by 1');\r\n  }\r\n\r\n\r\n}\r\n",
  "sourcePath": "C:\\Users\\barney\\blockchain-node\\blockchain-node-api\\contracts\\SimpleStorage.sol",
  "compiler": {
    "name": "solc",
    "version": "0.5.16+commit.9c3226ce.Emscripten.clang"
  },
  "schemaVersion": "3.4.8",
  "updatedAt": "2022-07-17T15:58:59.616Z",
  "networkType": "ethereum",
  "devdoc": {
    "methods": {}
  },
  "userdoc": {
    "methods": {}
  }
}