{
  "contractName": "WeighBridge",
  "abi": [
    {
      "inputs": [],
      "payable": false,
      "stateMutability": "nonpayable",
      "type": "constructor"
    },
    {
      "anonymous": false,
      "inputs": [
        {
          "indexed": true,
          "internalType": "address",
          "name": "from",
          "type": "address"
        },
        {
          "indexed": false,
          "internalType": "string",
          "name": "message",
          "type": "string"
        }
      ],
      "name": "MyEvent",
      "type": "event"
    },
    {
      "constant": true,
      "inputs": [],
      "name": "count",
      "outputs": [
        {
          "internalType": "uint256",
          "name": "",
          "type": "uint256"
        }
      ],
      "payable": false,
      "stateMutability": "view",
      "type": "function"
    },
    {
      "constant": true,
      "inputs": [],
      "name": "timestamp",
      "outputs": [
        {
          "internalType": "string",
          "name": "",
          "type": "string"
        }
      ],
      "payable": false,
      "stateMutability": "view",
      "type": "function"
    },
    {
      "constant": true,
      "inputs": [],
      "name": "weight",
      "outputs": [
        {
          "internalType": "uint256",
          "name": "",
          "type": "uint256"
        }
      ],
      "payable": false,
      "stateMutability": "view",
      "type": "function"
    },
    {
      "constant": false,
      "inputs": [
        {
          "internalType": "uint256",
          "name": "recordedTankWeight",
          "type": "uint256"
        }
      ],
      "name": "saveWeight",
      "outputs": [],
      "payable": false,
      "stateMutability": "nonpayable",
      "type": "function"
    }
  ],
  "bytecode": "0x60806040526000805560006001556040518060200160405280600081525060029080519060200190610032929190610102565b5034801561003f57600080fd5b503373ffffffffffffffffffffffffffffffffffffffff167fb32176d17075eed8b3928b6074acca3be6f7932af328157d97cdb73ba7b2b02560405180806020018281038252602b815260200180610468602b913960400191505060405180910390a26000808190555060006001819055506040518060400160405280600481526020017f6e6f772100000000000000000000000000000000000000000000000000000000815250600290805190602001906100fc929190610102565b506101a7565b828054600181600116156101000203166002900490600052602060002090601f016020900481019282601f1061014357805160ff1916838001178555610171565b82800160010185558215610171579182015b82811115610170578251825591602001919060010190610155565b5b50905061017e9190610182565b5090565b6101a491905b808211156101a0576000816000905550600101610188565b5090565b90565b6102b2806101b66000396000f3fe608060405234801561001057600080fd5b506004361061004c5760003560e01c806306661abd146100515780636413d6ad1461006f578063a1aab33f1461009d578063b80777ea146100bb575b600080fd5b61005961013e565b6040518082815260200191505060405180910390f35b61009b6004803603602081101561008557600080fd5b8101908080359060200190929190505050610144565b005b6100a56101b0565b6040518082815260200191505060405180910390f35b6100c36101b6565b6040518080602001828103825283818151815260200191508051906020019080838360005b838110156101035780820151818401526020810190506100e8565b50505050905090810190601f1680156101305780820380516001836020036101000a031916815260200191505b509250505060405180910390f35b60005481565b3373ffffffffffffffffffffffffffffffffffffffff167fb32176d17075eed8b3928b6074acca3be6f7932af328157d97cdb73ba7b2b0256040518080602001828103825260298152602001806102556029913960400191505060405180910390a28060018190555050565b60015481565b60028054600181600116156101000203166002900480601f01602080910402602001604051908101604052809291908181526020018280546001816001161561010002031660029004801561024c5780601f106102215761010080835404028352916020019161024c565b820191906000526020600020905b81548152906001019060200180831161022f57829003601f168201915b50505050508156fe4a757374207265636f726465642074616e6b2057656967687420696e20736176655765696768742829a265627a7a72315820c5cee8496a1ed9a5ac3586cad76fcefce757342e36c1e2617afec393b919ade264736f6c634300051000324a75737420637265617465642057656967684272696467652073746f7261676520636f6e7472616374203a",
  "source": "//pragma solidity ^0.8.10;\r\n//pragma solidity >=0.4.22 <=0.8.15;\r\npragma solidity >=0.4.22 <=0.8.15;\r\n\r\ncontract WeighBridge {\r\n  uint      public count = 0; // state variable\r\n  uint      public weight =0; //state variable\r\n  string    public timestamp   =\"\";\r\n\r\n  event MyEvent(address indexed from, string message);\r\n\r\n\r\n\r\n\r\n\r\n  constructor() public {\r\n    //createWeighBridge('WeightBridge COLAS', '123123123');\r\n    emit MyEvent(msg.sender, 'Just created WeighBridge storage contract :');\r\n    count=0;\r\n    weight=0;\r\n    timestamp=\"now!\";\r\n  }\r\n\r\n\r\n  //Added ability to save Tank Weight\r\n  function saveWeight(uint recordedTankWeight) public {\r\n    emit MyEvent(msg.sender, 'Just recorded tank Weight in saveWeight()');\r\n    weight=recordedTankWeight;\r\n  }\r\n}",
  "sourcePath": "C:\\Users\\barney\\blockchain-node\\blockchain-node-api\\contracts\\WeighBridge.sol",
  "compiler": {
    "name": "solc",
    "version": "0.5.16+commit.9c3226ce.Emscripten.clang"
  },
  "schemaVersion": "3.4.8",
  "updatedAt": "2022-08-13T20:05:46.931Z",
  "networkType": "ethereum",
  "devdoc": {
    "methods": {}
  },
  "userdoc": {
    "methods": {}
  }
}