{
  "contractName": "WeighBridge",
  "abi": [
    {
      "inputs": [],
      "payable": false,
      "stateMutability": "nonpayable",
      "type": "constructor"
    },
    {
      "anonymous": false,
      "inputs": [
        {
          "indexed": true,
          "internalType": "address",
          "name": "from",
          "type": "address"
        },
        {
          "indexed": false,
          "internalType": "string",
          "name": "message",
          "type": "string"
        }
      ],
      "name": "MyEvent",
      "type": "event"
    },
    {
      "constant": true,
      "inputs": [],
      "name": "ID",
      "outputs": [
        {
          "internalType": "uint256",
          "name": "",
          "type": "uint256"
        }
      ],
      "payable": false,
      "stateMutability": "view",
      "type": "function"
    },
    {
      "constant": true,
      "inputs": [],
      "name": "count",
      "outputs": [
        {
          "internalType": "uint256",
          "name": "",
          "type": "uint256"
        }
      ],
      "payable": false,
      "stateMutability": "view",
      "type": "function"
    },
    {
      "constant": true,
      "inputs": [],
      "name": "timestamp",
      "outputs": [
        {
          "internalType": "string",
          "name": "",
          "type": "string"
        }
      ],
      "payable": false,
      "stateMutability": "view",
      "type": "function"
    },
    {
      "constant": true,
      "inputs": [],
      "name": "weight",
      "outputs": [
        {
          "internalType": "uint256",
          "name": "",
          "type": "uint256"
        }
      ],
      "payable": false,
      "stateMutability": "view",
      "type": "function"
    },
    {
      "constant": false,
      "inputs": [
        {
          "internalType": "uint256",
          "name": "recordedTankWeight",
          "type": "uint256"
        },
        {
          "internalType": "string",
          "name": "inputTimeStamp",
          "type": "string"
        },
        {
          "internalType": "uint256",
          "name": "inputID",
          "type": "uint256"
        }
      ],
      "name": "saveWeight",
      "outputs": [],
      "payable": false,
      "stateMutability": "nonpayable",
      "type": "function"
    }
  ],
  "bytecode": "0x608060405260008055600060015560006002556040518060200160405280600081525060039080519060200190610037929190610115565b5061138860045534801561004a57600080fd5b503373ffffffffffffffffffffffffffffffffffffffff167fb32176d17075eed8b3928b6074acca3be6f7932af328157d97cdb73ba7b2b02560405180806020018281038252602b815260200180610610602b913960400191505060405180910390a260008081905550600060018190555060006002819055506040518060400160405280600481526020017f6e6f7721000000000000000000000000000000000000000000000000000000008152506003908051906020019061010f929190610115565b506101ba565b828054600181600116156101000203166002900490600052602060002090601f016020900481019282601f1061015657805160ff1916838001178555610184565b82800160010185558215610184579182015b82811115610183578251825591602001919060010190610168565b5b5090506101919190610195565b5090565b6101b791905b808211156101b357600081600090555060010161019b565b5090565b90565b610447806101c96000396000f3fe608060405234801561001057600080fd5b50600436106100575760003560e01c806306661abd1461005c5780639b7dfab21461007a578063a1aab33f14610149578063b3cea21714610167578063b80777ea14610185575b600080fd5b610064610208565b6040518082815260200191505060405180910390f35b6101476004803603606081101561009057600080fd5b8101908080359060200190929190803590602001906401000000008111156100b757600080fd5b8201836020820111156100c957600080fd5b803590602001918460018302840111640100000000831117156100eb57600080fd5b91908080601f016020809104026020016040519081016040528093929190818152602001838380828437600081840152601f19601f8201169050808301925050505050505091929192908035906020019092919050505061020e565b005b61015161029a565b6040518082815260200191505060405180910390f35b61016f6102a0565b6040518082815260200191505060405180910390f35b61018d6102a6565b6040518080602001828103825283818151815260200191508051906020019080838360005b838110156101cd5780820151818401526020810190506101b2565b50505050905090810190601f1680156101fa5780820380516001836020036101000a031916815260200191505b509250505060405180910390f35b60005481565b3373ffffffffffffffffffffffffffffffffffffffff167fb32176d17075eed8b3928b6074acca3be6f7932af328157d97cdb73ba7b2b0256040518080602001828103825260298152602001806103ea6029913960400191505060405180910390a282600181905550816003908051906020019061028d929190610344565b5080600281905550505050565b60015481565b60025481565b60038054600181600116156101000203166002900480601f01602080910402602001604051908101604052809291908181526020018280546001816001161561010002031660029004801561033c5780601f106103115761010080835404028352916020019161033c565b820191906000526020600020905b81548152906001019060200180831161031f57829003601f168201915b505050505081565b828054600181600116156101000203166002900490600052602060002090601f016020900481019282601f1061038557805160ff19168380011785556103b3565b828001600101855582156103b3579182015b828111156103b2578251825591602001919060010190610397565b5b5090506103c091906103c4565b5090565b6103e691905b808211156103e25760008160009055506001016103ca565b5090565b9056fe4a757374207265636f726465642074616e6b2057656967687420696e20736176655765696768742829a265627a7a72315820283f805a60fbe15c20e6829758b03b3c749b0badd07aa7611dbb07b723ef892464736f6c634300051000324a75737420637265617465642057656967684272696467652073746f7261676520636f6e7472616374203a",
  "source": "//pragma solidity ^0.8.10;\r\n//pragma solidity >=0.4.22 <=0.8.15;\r\npragma solidity >=0.4.22 <=0.8.16;\r\ncontract WeighBridge {\r\n  uint      public count = 0; // state variable\r\n  uint      public weight =0; //state variable\r\n  uint      public ID=0;      //helps us track the calls from data source\r\n  string    public timestamp   =\"\";\r\n  uint      CRITICAL_LEVEL = 5000;\r\n\r\n  event MyEvent(address indexed from, string message);\r\n\r\n\r\n\r\n\r\n\r\n  constructor() public {\r\n    //createWeighBridge('WeightBridge COLAS', '123123123');\r\n    emit MyEvent(msg.sender, 'Just created WeighBridge storage contract :');\r\n    count     = 0;\r\n    weight    = 0;\r\n    ID        = 0;\r\n    timestamp = \"now!\";\r\n  }\r\n\r\n\r\n  //Save Tank Weight on Blockchain\r\n  function saveWeight(uint recordedTankWeight, string memory inputTimeStamp, uint inputID) public {\r\n    emit MyEvent(msg.sender, 'Just recorded tank Weight in saveWeight()');\r\n      weight    = recordedTankWeight;\r\n      timestamp = inputTimeStamp;\r\n      ID        = inputID;\r\n\r\n    if (recordedTankWeight < CRITICAL_LEVEL){\r\n      //Send Purchase Order Request via Kaleido platform\r\n    }\r\n  }\r\n}",
  "sourcePath": "C:\\Brendan\\perso\\Course\\Project\\VSTruffleProjects\\Kaleido2\\contracts\\WeighBridge.sol",
  "compiler": {
    "name": "solc",
    "version": "0.5.16+commit.9c3226ce.Emscripten.clang"
  },
  "schemaVersion": "3.4.9",
  "updatedAt": "2022-08-17T18:42:02.532Z",
  "networkType": "ethereum",
  "devdoc": {
    "methods": {}
  },
  "userdoc": {
    "methods": {}
  }
}